{"abi":[{"type":"constructor","inputs":[{"name":"initialOwner","type":"address","internalType":"address"},{"name":"_marketMakerRegistry","type":"address","internalType":"address"},{"name":"_quoteManager","type":"address","internalType":"address"},{"name":"_feeRecipient","type":"address","internalType":"address"}],"stateMutability":"nonpayable"},{"type":"function","name":"BASIS_POINTS","inputs":[],"outputs":[{"name":"","type":"uint256","internalType":"uint256"}],"stateMutability":"view"},{"type":"function","name":"MAX_PROTOCOL_FEE","inputs":[],"outputs":[{"name":"","type":"uint256","internalType":"uint256"}],"stateMutability":"view"},{"type":"function","name":"acceptQuote","inputs":[{"name":"requestId","type":"bytes32","internalType":"bytes32"},{"name":"quoteId","type":"bytes32","internalType":"bytes32"}],"outputs":[],"stateMutability":"nonpayable"},{"type":"function","name":"cancelQuote","inputs":[{"name":"quoteId","type":"bytes32","internalType":"bytes32"}],"outputs":[],"stateMutability":"nonpayable"},{"type":"function","name":"cancelRFQ","inputs":[{"name":"requestId","type":"bytes32","internalType":"bytes32"}],"outputs":[],"stateMutability":"nonpayable"},{"type":"function","name":"createRFQ","inputs":[{"name":"tokenIn","type":"address","internalType":"address"},{"name":"tokenOut","type":"address","internalType":"address"},{"name":"amountIn","type":"uint256","internalType":"uint256"},{"name":"minAmountOut","type":"uint256","internalType":"uint256"},{"name":"deadline","type":"uint256","internalType":"uint256"}],"outputs":[{"name":"requestId","type":"bytes32","internalType":"bytes32"}],"stateMutability":"nonpayable"},{"type":"function","name":"feeRecipient","inputs":[],"outputs":[{"name":"","type":"address","internalType":"address"}],"stateMutability":"view"},{"type":"function","name":"getBestQuote","inputs":[{"name":"requestId","type":"bytes32","internalType":"bytes32"}],"outputs":[{"name":"quote","type":"tuple","internalType":"struct Types.Quote","components":[{"name":"quoteId","type":"bytes32","internalType":"bytes32"},{"name":"requestId","type":"bytes32","internalType":"bytes32"},{"name":"marketMaker","type":"address","internalType":"address"},{"name":"amountOut","type":"uint256","internalType":"uint256"},{"name":"quoteExpiry","type":"uint256","internalType":"uint256"},{"name":"status","type":"uint8","internalType":"enum Types.QuoteStatus"},{"name":"timestamp","type":"uint256","internalType":"uint256"}]}],"stateMutability":"view"},{"type":"function","name":"getQuotesForRequest","inputs":[{"name":"requestId","type":"bytes32","internalType":"bytes32"}],"outputs":[{"name":"quotes","type":"tuple[]","internalType":"struct Types.Quote[]","components":[{"name":"quoteId","type":"bytes32","internalType":"bytes32"},{"name":"requestId","type":"bytes32","internalType":"bytes32"},{"name":"marketMaker","type":"address","internalType":"address"},{"name":"amountOut","type":"uint256","internalType":"uint256"},{"name":"quoteExpiry","type":"uint256","internalType":"uint256"},{"name":"status","type":"uint8","internalType":"enum Types.QuoteStatus"},{"name":"timestamp","type":"uint256","internalType":"uint256"}]}],"stateMutability":"view"},{"type":"function","name":"getRFQRequest","inputs":[{"name":"requestId","type":"bytes32","internalType":"bytes32"}],"outputs":[{"name":"","type":"tuple","internalType":"struct Types.RFQRequest","components":[{"name":"requestId","type":"bytes32","internalType":"bytes32"},{"name":"customer","type":"address","internalType":"address"},{"name":"tokenIn","type":"address","internalType":"address"},{"name":"tokenOut","type":"address","internalType":"address"},{"name":"amountIn","type":"uint256","internalType":"uint256"},{"name":"minAmountOut","type":"uint256","internalType":"uint256"},{"name":"deadline","type":"uint256","internalType":"uint256"},{"name":"status","type":"uint8","internalType":"enum Types.RequestStatus"},{"name":"timestamp","type":"uint256","internalType":"uint256"}]}],"stateMutability":"view"},{"type":"function","name":"marketMakerRegistry","inputs":[],"outputs":[{"name":"","type":"address","internalType":"contract IMarketMakerRegistry"}],"stateMutability":"view"},{"type":"function","name":"maxQuoteTimeout","inputs":[],"outputs":[{"name":"","type":"uint256","internalType":"uint256"}],"stateMutability":"view"},{"type":"function","name":"minQuoteTimeout","inputs":[],"outputs":[{"name":"","type":"uint256","internalType":"uint256"}],"stateMutability":"view"},{"type":"function","name":"owner","inputs":[],"outputs":[{"name":"","type":"address","internalType":"address"}],"stateMutability":"view"},{"type":"function","name":"protocolFee","inputs":[],"outputs":[{"name":"","type":"uint256","internalType":"uint256"}],"stateMutability":"view"},{"type":"function","name":"quoteManager","inputs":[],"outputs":[{"name":"","type":"address","internalType":"contract IQuoteManager"}],"stateMutability":"view"},{"type":"function","name":"renounceOwnership","inputs":[],"outputs":[],"stateMutability":"nonpayable"},{"type":"function","name":"requests","inputs":[{"name":"","type":"bytes32","internalType":"bytes32"}],"outputs":[{"name":"requestId","type":"bytes32","internalType":"bytes32"},{"name":"customer","type":"address","internalType":"address"},{"name":"tokenIn","type":"address","internalType":"address"},{"name":"tokenOut","type":"address","internalType":"address"},{"name":"amountIn","type":"uint256","internalType":"uint256"},{"name":"minAmountOut","type":"uint256","internalType":"uint256"},{"name":"deadline","type":"uint256","internalType":"uint256"},{"name":"status","type":"uint8","internalType":"enum Types.RequestStatus"},{"name":"timestamp","type":"uint256","internalType":"uint256"}],"stateMutability":"view"},{"type":"function","name":"rfqTimeout","inputs":[],"outputs":[{"name":"","type":"uint256","internalType":"uint256"}],"stateMutability":"view"},{"type":"function","name":"setFeeRecipient","inputs":[{"name":"_feeRecipient","type":"address","internalType":"address"}],"outputs":[],"stateMutability":"nonpayable"},{"type":"function","name":"setProtocolFee","inputs":[{"name":"newFee","type":"uint256","internalType":"uint256"}],"outputs":[],"stateMutability":"nonpayable"},{"type":"function","name":"setQuoteTimeout","inputs":[{"name":"_minQuoteTimeout","type":"uint256","internalType":"uint256"},{"name":"_maxQuoteTimeout","type":"uint256","internalType":"uint256"}],"outputs":[],"stateMutability":"nonpayable"},{"type":"function","name":"submitQuote","inputs":[{"name":"requestId","type":"bytes32","internalType":"bytes32"},{"name":"amountOut","type":"uint256","internalType":"uint256"},{"name":"quoteExpiry","type":"uint256","internalType":"uint256"}],"outputs":[{"name":"quoteId","type":"bytes32","internalType":"bytes32"}],"stateMutability":"nonpayable"},{"type":"function","name":"transferOwnership","inputs":[{"name":"newOwner","type":"address","internalType":"address"}],"outputs":[],"stateMutability":"nonpayable"},{"type":"function","name":"updateQuote","inputs":[{"name":"quoteId","type":"bytes32","internalType":"bytes32"},{"name":"newAmountOut","type":"uint256","internalType":"uint256"}],"outputs":[],"stateMutability":"nonpayable"},{"type":"event","name":"FeeRecipientUpdated","inputs":[{"name":"oldRecipient","type":"address","indexed":false,"internalType":"address"},{"name":"newRecipient","type":"address","indexed":false,"internalType":"address"}],"anonymous":false},{"type":"event","name":"OwnershipTransferred","inputs":[{"name":"previousOwner","type":"address","indexed":true,"internalType":"address"},{"name":"newOwner","type":"address","indexed":true,"internalType":"address"}],"anonymous":false},{"type":"event","name":"ProtocolFeeUpdated","inputs":[{"name":"oldFee","type":"uint256","indexed":false,"internalType":"uint256"},{"name":"newFee","type":"uint256","indexed":false,"internalType":"uint256"}],"anonymous":false},{"type":"event","name":"QuoteAccepted","inputs":[{"name":"quoteId","type":"bytes32","indexed":true,"internalType":"bytes32"},{"name":"requestId","type":"bytes32","indexed":true,"internalType":"bytes32"},{"name":"marketMaker","type":"address","indexed":true,"internalType":"address"},{"name":"amountOut","type":"uint256","indexed":false,"internalType":"uint256"}],"anonymous":false},{"type":"event","name":"QuoteCancelled","inputs":[{"name":"quoteId","type":"bytes32","indexed":true,"internalType":"bytes32"},{"name":"marketMaker","type":"address","indexed":true,"internalType":"address"}],"anonymous":false},{"type":"event","name":"QuoteSubmitted","inputs":[{"name":"quoteId","type":"bytes32","indexed":true,"internalType":"bytes32"},{"name":"requestId","type":"bytes32","indexed":true,"internalType":"bytes32"},{"name":"marketMaker","type":"address","indexed":true,"internalType":"address"},{"name":"amountOut","type":"uint256","indexed":false,"internalType":"uint256"},{"name":"quoteExpiry","type":"uint256","indexed":false,"internalType":"uint256"}],"anonymous":false},{"type":"event","name":"QuoteTimeoutUpdated","inputs":[{"name":"minTimeout","type":"uint256","indexed":false,"internalType":"uint256"},{"name":"maxTimeout","type":"uint256","indexed":false,"internalType":"uint256"}],"anonymous":false},{"type":"event","name":"QuoteUpdated","inputs":[{"name":"quoteId","type":"bytes32","indexed":true,"internalType":"bytes32"},{"name":"oldAmountOut","type":"uint256","indexed":false,"internalType":"uint256"},{"name":"newAmountOut","type":"uint256","indexed":false,"internalType":"uint256"}],"anonymous":false},{"type":"event","name":"RFQCancelled","inputs":[{"name":"requestId","type":"bytes32","indexed":true,"internalType":"bytes32"},{"name":"customer","type":"address","indexed":true,"internalType":"address"}],"anonymous":false},{"type":"event","name":"RFQCreated","inputs":[{"name":"requestId","type":"bytes32","indexed":true,"internalType":"bytes32"},{"name":"customer","type":"address","indexed":true,"internalType":"address"},{"name":"tokenIn","type":"address","indexed":false,"internalType":"address"},{"name":"tokenOut","type":"address","indexed":false,"internalType":"address"},{"name":"amountIn","type":"uint256","indexed":false,"internalType":"uint256"},{"name":"minAmountOut","type":"uint256","indexed":false,"internalType":"uint256"},{"name":"deadline","type":"uint256","indexed":false,"internalType":"uint256"}],"anonymous":false},{"type":"event","name":"SwapExecuted","inputs":[{"name":"requestId","type":"bytes32","indexed":true,"internalType":"bytes32"},{"name":"customer","type":"address","indexed":true,"internalType":"address"},{"name":"marketMaker","type":"address","indexed":true,"internalType":"address"},{"name":"tokenIn","type":"address","indexed":false,"internalType":"address"},{"name":"tokenOut","type":"address","indexed":false,"internalType":"address"},{"name":"amountIn","type":"uint256","indexed":false,"internalType":"uint256"},{"name":"amountOut","type":"uint256","indexed":false,"internalType":"uint256"},{"name":"protocolFee","type":"uint256","indexed":false,"internalType":"uint256"}],"anonymous":false},{"type":"error","name":"AmountBelowMinimum","inputs":[]},{"type":"error","name":"DeadlineMustBeInFuture","inputs":[]},{"type":"error","name":"DeadlineTooShort","inputs":[]},{"type":"error","name":"FeeTooHigh","inputs":[]},{"type":"error","name":"InvalidAddress","inputs":[]},{"type":"error","name":"InvalidExpiry","inputs":[]},{"type":"error","name":"InvalidFeeRecipient","inputs":[]},{"type":"error","name":"MarketMakerNotActive","inputs":[]},{"type":"error","name":"NotQuoteOwner","inputs":[]},{"type":"error","name":"NotRequestOwner","inputs":[]},{"type":"error","name":"OwnableInvalidOwner","inputs":[{"name":"owner","type":"address","internalType":"address"}]},{"type":"error","name":"OwnableUnauthorizedAccount","inputs":[{"name":"account","type":"address","internalType":"address"}]},{"type":"error","name":"QuoteAlreadyAccepted","inputs":[]},{"type":"error","name":"QuoteAlreadyCancelled","inputs":[]},{"type":"error","name":"QuoteExpired","inputs":[]},{"type":"error","name":"QuoteExpiryTooLong","inputs":[]},{"type":"error","name":"QuoteExpiryTooShort","inputs":[]},{"type":"error","name":"QuoteNotForThisRequest","inputs":[]},{"type":"error","name":"ReentrancyGuardReentrantCall","inputs":[]},{"type":"error","name":"RequestAlreadyCancelled","inputs":[]},{"type":"error","name":"RequestAlreadyExecuted","inputs":[]},{"type":"error","name":"RequestExpired","inputs":[]},{"type":"error","name":"RequestNotFound","inputs":[]},{"type":"error","name":"SafeERC20FailedOperation","inputs":[{"name":"token","type":"address","internalType":"address"}]},{"type":"error","name":"SameToken","inputs":[]},{"type":"error","name":"ZeroAmount","inputs":[]}],"bytecode":{"object":"0x608060405234801561000f575f5ffd5b506040516122a43803806122a483398101604081905261002e916101c2565b836001600160a01b03811661005c57604051631e4fbdf760e01b81525f600482015260240160405180910390fd5b61006581610158565b5060017f9b779b17422d0df92223018b32b4d1fa46e071723d6817e2486d003becc55f00556001600160a01b0383166100b15760405163e6c4247b60e01b815260040160405180910390fd5b6001600160a01b0382166100d85760405163e6c4247b60e01b815260040160405180910390fd5b6001600160a01b0381166100ff57604051630ed1b8b360e31b815260040160405180910390fd5b600180546001600160a01b039485166001600160a01b03199182161790915560028054938516938216939093179092556008805491909316911617905550601e600481905560055561012c600655610258600755610213565b5f80546001600160a01b038381166001600160a01b0319831681178455604051919092169283917f8be0079c531659141344cd1fd0a4f28419497f9722a3daafe3b4186f6b6457e09190a35050565b80516001600160a01b03811681146101bd575f5ffd5b919050565b5f5f5f5f608085870312156101d5575f5ffd5b6101de856101a7565b93506101ec602086016101a7565b92506101fa604086016101a7565b9150610208606086016101a7565b905092959194509250565b612084806102205f395ff3fe608060405234801561000f575f5ffd5b506004361061016d575f3560e01c8063ae86fed3116100d9578063e028a30011610093578063ebf6f8381161006e578063ebf6f83814610375578063f2fde38b1461037e578063f4e96ddf14610391578063fef85672146103a4575f5ffd5b8063e028a30014610339578063e1f1c4a714610359578063e74b981b14610362575f5ffd5b8063ae86fed3146102ce578063b0e21e8a146102e1578063b2b1f484146102ea578063b8ca3b831461030a578063ca563abb14610313578063d632995514610326575f5ffd5b8063787dce3d1161012a578063787dce3d146101fb5780637f4f65351461020e5780638a4cbdd7146102175780638da5cb5b1461022a578063985555381461023a5780639d8669851461024d575f5ffd5b80631c6824d114610171578063469048401461018d578063526a75fd146101b85780635c36f34b146101cd57806366bffe26146101e0578063715018a6146101f3575b5f5ffd5b61017a60075481565b6040519081526020015b60405180910390f35b6008546101a0906001600160a01b031681565b6040516001600160a01b039091168152602001610184565b6101cb6101c6366004611af7565b6103c4565b005b6001546101a0906001600160a01b031681565b61017a6101ee366004611b17565b61075c565b6101cb610a5b565b6101cb610209366004611b40565b610a6e565b61017a60065481565b6101cb610225366004611af7565b610adf565b5f546001600160a01b03166101a0565b61017a610248366004611b6b565b610b74565b6102b961025b366004611b40565b600360208190525f918252604090912080546001820154600283015493830154600484015460058501546006860154600787015460089097015495976001600160a01b039586169790861696959094169492939192909160ff169089565b60405161018499989796959493929190611bf5565b6101cb6102dc366004611b40565b610eaf565b61017a60045481565b6102fd6102f8366004611b40565b610fe0565b6040516101849190611c52565b61017a6103e881565b6101cb610321366004611af7565b611099565b6002546101a0906001600160a01b031681565b61034c610347366004611b40565b611364565b6040516101849190611d20565b61017a61271081565b6101cb610370366004611d2e565b6113dd565b61017a60055481565b6101cb61038c366004611d2e565b611466565b6101cb61039f366004611b40565b6114a3565b6103b76103b2366004611b40565b611639565b6040516101849190611d50565b6103cc6116a7565b5f82815260036020526040902060018101546001600160a01b031633146104065760405163517907dd60e01b815260040160405180910390fd5b805461042557604051632589d98f60e11b815260040160405180910390fd5b4281600601541161044957604051637f780e6960e11b815260040160405180910390fd5b6002600782015460ff16600481111561046457610464611bb8565b0361048257604051636b78fca360e11b815260040160405180910390fd5b6003600782015460ff16600481111561049d5761049d611bb8565b036104bb576040516318e1e8fb60e31b815260040160405180910390fd5b6002546040516360f85c6760e01b8152600481018490525f916001600160a01b0316906360f85c679060240160e060405180830381865afa158015610502573d5f5f3e3d5ffd5b505050506040513d601f19601f820116820180604052508101906105269190611e83565b90508381602001511461054c5760405163ddcf2f3360e01b815260040160405180910390fd5b4281608001511161057057604051638727a7f960e01b815260040160405180910390fd5b60018160a00151600481111561058857610588611bb8565b036105a6576040516308e9234960e31b815260040160405180910390fd5b60048160a0015160048111156105be576105be611bb8565b036105dc5760405163164dd02360e01b815260040160405180910390fd5b60025460405163f93722e960e01b81526001600160a01b039091169063f93722e99061060f908690600190600401611e9d565b5f604051808303815f87803b158015610626575f5ffd5b505af1158015610638573d5f5f3e3d5ffd5b505060408051610120810182528554815260018601546001600160a01b0390811660208301526002870154811692820192909252600386015490911660608201526004808601546080830152600586015460a0830152600686015460c083015260078601546106e69450919250859160e084019160ff909116908111156106c1576106c1611bb8565b60048111156106d2576106d2611bb8565b8152602001600882015481525050826116c2565b60078201805460ff19166002179055604080820151606083015191519182526001600160a01b031690859085907f3be49f7bae983e62e25d594fd975f0d5119128e090e705ebefd5a358812c8fa29060200160405180910390a4505061075860015f51602061202f5f395f51905f5255565b5050565b60015460405163cc91a11d60e01b81523360048201525f916001600160a01b03169063cc91a11d90602401602060405180830381865afa1580156107a2573d5f5f3e3d5ffd5b505050506040513d601f19601f820116820180604052508101906107c69190611eba565b6107e357604051633cdaf64960e01b815260040160405180910390fd5b5f848152600360205260409020805461080f57604051632589d98f60e11b815260040160405180910390fd5b4281600601541161083357604051637f780e6960e11b815260040160405180910390fd5b6002600782015460ff16600481111561084e5761084e611bb8565b0361086c57604051636b78fca360e11b815260040160405180910390fd5b6003600782015460ff16600481111561088757610887611bb8565b036108a5576040516318e1e8fb60e31b815260040160405180910390fd5b80600501548410156108ca57604051632fcd1a0f60e01b815260040160405180910390fd5b835f036108ea57604051631f2a200560e01b815260040160405180910390fd5b4283116109095760405162d36c8560e81b815260040160405180910390fd5b6005546109169042611eed565b8310156109365760405163c083904360e01b815260040160405180910390fd5b6006546109439042611eed565b831115610963576040516361178ff360e11b815260040160405180910390fd5b600254604051636ac77a7960e01b81526004810187905233602482015260448101869052606481018590526001600160a01b0390911690636ac77a79906084016020604051808303815f875af11580156109bf573d5f5f3e3d5ffd5b505050506040513d601f19601f820116820180604052508101906109e39190611f00565b91505f600782015460ff1660048111156109ff576109ff611bb8565b03610a145760078101805460ff191660011790555b60408051858152602081018590523391879185917f6c7d7300611c57ae1687af22ab0ee7e0ce8a822e814f09d9cb1848f10a4b466d910160405180910390a4509392505050565b610a63611879565b610a6c5f6118a5565b565b610a76611879565b6103e8811115610a995760405163cd4e616760e01b815260040160405180910390fd5b600480549082905560408051828152602081018490527fb404cac19fb1cbeff98d325795b08886e3cd8fe8cb1a2f193aac66f13fb239c391015b60405180910390a15050565b610ae7611879565b808210610b345760405162461bcd60e51b8152602060048201526016602482015275496e76616c69642074696d656f75742076616c75657360501b60448201526064015b60405180910390fd5b6005829055600681905560408051838152602081018390527faf71370285e55c30853e1f4a93aef1735627850d7b353d92f6dbffae5bec4e599101610ad3565b5f610b7d6116a7565b6001600160a01b0386161580610b9a57506001600160a01b038516155b15610bb85760405163e6c4247b60e01b815260040160405180910390fd5b846001600160a01b0316866001600160a01b031603610bea5760405163100dac0560e11b815260040160405180910390fd5b835f03610c0a57604051631f2a200560e01b815260040160405180910390fd5b825f03610c2a57604051631f2a200560e01b815260040160405180910390fd5b428211610c4a57604051630642ce7760e01b815260040160405180910390fd5b600554610c579042611eed565b821015610c76576040516296ff9960e31b815260040160405180910390fd5b60098054905f610c8583611f17565b90915550506009546040516bffffffffffffffffffffffff1933606090811b8216602084015289811b8216603484015288901b166048820152605c810186905242607c820152609c81019190915260bc0160408051601f1981840301815291905280516020909101209050610d056001600160a01b0387163330876118f4565b604051806101200160405280828152602001336001600160a01b03168152602001876001600160a01b03168152602001866001600160a01b031681526020018581526020018481526020018381526020015f6004811115610d6857610d68611bb8565b8152426020918201525f83815260038083526040918290208451815592840151600180850180546001600160a01b03199081166001600160a01b0394851617909155938601516002860180548616918416919091179055606086015192850180549094169290911691909117909155608083015160048084019190915560a0840151600584015560c0840151600684015560e08401516007840180549193909260ff19909216918490811115610e2057610e20611bb8565b02179055506101009190910151600890910155604080516001600160a01b038881168252871660208201529081018590526060810184905260808101839052339082907f2af59f72f1308f085cc072de8b0e61d2091924d3b5bc542ed342eb1b2ca0faaf9060a00160405180910390a3610ea660015f51602061202f5f395f51905f5255565b95945050505050565b5f81815260036020526040902060018101546001600160a01b03163314610ee95760405163517907dd60e01b815260040160405180910390fd5b8054610f0857604051632589d98f60e11b815260040160405180910390fd5b6002600782015460ff166004811115610f2357610f23611bb8565b03610f4157604051636b78fca360e11b815260040160405180910390fd5b6003600782015460ff166004811115610f5c57610f5c611bb8565b03610f7a576040516318e1e8fb60e31b815260040160405180910390fd5b60078101805460ff19166003179055600181015460048201546002830154610fb0926001600160a01b0391821692911690611930565b604051339083907f7d040e2a46f0649230f0ecb9097858586bc1c52277aef8f44353781d476c742d905f90a35050565b610fe8611a68565b5f828152600360208181526040928390208351610120810185528154815260018201546001600160a01b03908116938201939093526002820154831694810194909452918201541660608301526004808201546080840152600582015460a0840152600682015460c0840152600782015460e084019160ff9091169081111561107357611073611bb8565b600481111561108457611084611bb8565b81526020016008820154815250509050919050565b6002546040516360f85c6760e01b8152600481018490525f916001600160a01b0316906360f85c679060240160e060405180830381865afa1580156110e0573d5f5f3e3d5ffd5b505050506040513d601f19601f820116820180604052508101906111049190611e83565b60408101519091506001600160a01b031633146111345760405163091bd9d160e31b815260040160405180910390fd5b60018160a00151600481111561114c5761114c611bb8565b0361116a576040516308e9234960e31b815260040160405180910390fd5b60048160a00151600481111561118257611182611bb8565b036111a05760405163164dd02360e01b815260040160405180910390fd5b428160800151116111c457604051638727a7f960e01b815260040160405180910390fd5b6020808201515f908152600380835260408083208151610120810183528154815260018201546001600160a01b039081169682019690965260028201548616928101929092529182015490931660608401526004808201546080850152600582015460a0850152600682015460c0850152600782015492939260e084019160ff9091169081111561125757611257611bb8565b600481111561126857611268611bb8565b815260200160088201548152505090508060a0015183101561129d57604051632fcd1a0f60e01b815260040160405180910390fd5b825f036112bd57604051631f2a200560e01b815260040160405180910390fd5b6060820151600254604051637cda3e1760e11b815260048101879052602481018690526001600160a01b039091169063f9b47c2e906044015f604051808303815f87803b15801561130c575f5ffd5b505af115801561131e573d5f5f3e3d5ffd5b505060408051848152602081018890528893507fe59fc99efc1c489dd844bc09b756967b6f846264e67c6babdffef36636e9802b92500160405180910390a25050505050565b61136c611ab3565b60025460405163f427f44160e01b8152600481018490526001600160a01b039091169063f427f4419060240160e060405180830381865afa1580156113b3573d5f5f3e3d5ffd5b505050506040513d601f19601f820116820180604052508101906113d79190611e83565b92915050565b6113e5611879565b6001600160a01b03811661140c57604051630ed1b8b360e31b815260040160405180910390fd5b600880546001600160a01b038381166001600160a01b031983168117909355604080519190921680825260208201939093527faaebcf1bfa00580e41d966056b48521fa9f202645c86d4ddf28113e617c1b1d39101610ad3565b61146e611879565b6001600160a01b03811661149757604051631e4fbdf760e01b81525f6004820152602401610b2b565b6114a0816118a5565b50565b6002546040516360f85c6760e01b8152600481018390525f916001600160a01b0316906360f85c679060240160e060405180830381865afa1580156114ea573d5f5f3e3d5ffd5b505050506040513d601f19601f8201168201806040525081019061150e9190611e83565b60408101519091506001600160a01b0316331461153e5760405163091bd9d160e31b815260040160405180910390fd5b60018160a00151600481111561155657611556611bb8565b03611574576040516308e9234960e31b815260040160405180910390fd5b60048160a00151600481111561158c5761158c611bb8565b036115aa5760405163164dd02360e01b815260040160405180910390fd5b60025460405163f93722e960e01b81526001600160a01b039091169063f93722e9906115dc9085906004908101611e9d565b5f604051808303815f87803b1580156115f3575f5ffd5b505af1158015611605573d5f5f3e3d5ffd5b50506040513392508491507f29c7dcab619cedbd15667bb20a262caaf6c230bd4002b8d0c6e76cb14d59eb8d905f90a35050565b6002546040516334cf8fe360e11b8152600481018390526060916001600160a01b03169063699f1fc6906024015f60405180830381865afa158015611680573d5f5f3e3d5ffd5b505050506040513d5f823e601f3d908101601f191682016040526113d79190810190611f2f565b6116af61196a565b60025f51602061202f5f395f51905f5255565b5f61271060045484608001516116d89190611fe5565b6116e29190611ffc565b90505f8184608001516116f5919061201b565b905061172783604001518560200151856060015187606001516001600160a01b03166118f4909392919063ffffffff16565b61174d83604001518286604001516001600160a01b03166119309092919063ffffffff16565b8115611772576008546040850151611772916001600160a01b03918216911684611930565b6001805460408581015190516371609f1960e11b81526001600160a01b0391821660048201526024810193909352169063e2c13e32906044015f604051808303815f87803b1580156117c2575f5ffd5b505af11580156117d4573d5f5f3e3d5ffd5b5050505082604001516001600160a01b031684602001516001600160a01b0316855f01517f477bad9f4d03303c5f897ed889f5baef722fbadd93f70c2eba535029cdbeae8187604001518860600151896080015189606001518960405161186b9594939291906001600160a01b03958616815293909416602084015260408301919091526060820152608081019190915260a00190565b60405180910390a450505050565b5f546001600160a01b03163314610a6c5760405163118cdaa760e01b8152336004820152602401610b2b565b5f80546001600160a01b038381166001600160a01b0319831681178455604051919092169283917f8be0079c531659141344cd1fd0a4f28419497f9722a3daafe3b4186f6b6457e09190a35050565b611902848484846001611999565b61192a57604051635274afe760e01b81526001600160a01b0385166004820152602401610b2b565b50505050565b61193d8383836001611a06565b61196557604051635274afe760e01b81526001600160a01b0384166004820152602401610b2b565b505050565b5f51602061202f5f395f51905f5254600203610a6c57604051633ee5aeb560e01b815260040160405180910390fd5b6040516323b872dd60e01b5f8181526001600160a01b038781166004528616602452604485905291602083606481808c5af1925060015f511483166119f55783831516156119e9573d5f823e3d81fd5b5f883b113d1516831692505b604052505f60605295945050505050565b60405163a9059cbb60e01b5f8181526001600160a01b038616600452602485905291602083604481808b5af1925060015f51148316611a5c578383151615611a50573d5f823e3d81fd5b5f873b113d1516831692505b60405250949350505050565b60408051610120810182525f80825260208201819052918101829052606081018290526080810182905260a0810182905260c081018290529060e08201905b81526020015f81525090565b6040518060e001604052805f81526020015f81526020015f6001600160a01b031681526020015f81526020015f81526020015f6004811115611aa757611aa7611bb8565b5f5f60408385031215611b08575f5ffd5b50508035926020909101359150565b5f5f5f60608486031215611b29575f5ffd5b505081359360208301359350604090920135919050565b5f60208284031215611b50575f5ffd5b5035919050565b6001600160a01b03811681146114a0575f5ffd5b5f5f5f5f5f60a08688031215611b7f575f5ffd5b8535611b8a81611b57565b94506020860135611b9a81611b57565b94979496505050506040830135926060810135926080909101359150565b634e487b7160e01b5f52602160045260245ffd5b600581106114a057634e487b7160e01b5f52602160045260245ffd5b611bf181611bcc565b9052565b8981526001600160a01b0389811660208301528881166040830152871660608201526080810186905260a0810185905260c081018490526101208101611c3a84611bcc565b60e08201939093526101000152979650505050505050565b815181526020808301516001600160a01b039081169183019190915260408084015182169083015260608084015191821690830152610120820190506080830151608083015260a083015160a083015260c083015160c083015260e0830151611cbe60e0840182611be8565b5061010092830151919092015290565b805182526020810151602083015260018060a01b036040820151166040830152606081015160608301526080810151608083015260a0810151611d1081611bcc565b60a083015260c090810151910152565b60e081016113d78284611cce565b5f60208284031215611d3e575f5ffd5b8135611d4981611b57565b9392505050565b602080825282518282018190525f918401906040840190835b81811015611d9257611d7c838551611cce565b6020939093019260e09290920191600101611d69565b509095945050505050565b634e487b7160e01b5f52604160045260245ffd5b60405160e0810167ffffffffffffffff81118282101715611dd457611dd4611d9d565b60405290565b604051601f8201601f1916810167ffffffffffffffff81118282101715611e0357611e03611d9d565b604052919050565b5f60e08284031215611e1b575f5ffd5b611e23611db1565b82518152602080840151908201526040830151909150611e4281611b57565b6040820152606082810151908201526080808301519082015260a082015160058110611e6c575f5ffd5b60a082015260c09182015191810191909152919050565b5f60e08284031215611e93575f5ffd5b611d498383611e0b565b82815260408101611ead83611bcc565b8260208301529392505050565b5f60208284031215611eca575f5ffd5b81518015158114611d49575f5ffd5b634e487b7160e01b5f52601160045260245ffd5b808201808211156113d7576113d7611ed9565b5f60208284031215611f10575f5ffd5b5051919050565b5f60018201611f2857611f28611ed9565b5060010190565b5f60208284031215611f3f575f5ffd5b815167ffffffffffffffff811115611f55575f5ffd5b8201601f81018413611f65575f5ffd5b805167ffffffffffffffff811115611f7f57611f7f611d9d565b611f8e60208260051b01611dda565b80828252602082019150602060e08402850101925086831115611faf575f5ffd5b6020840193505b82841015611fdb57611fc88785611e0b565b825260208201915060e084019350611fb6565b9695505050505050565b80820281158282048414176113d7576113d7611ed9565b5f8261201657634e487b7160e01b5f52601260045260245ffd5b500490565b818103818111156113d7576113d7611ed956fe9b779b17422d0df92223018b32b4d1fa46e071723d6817e2486d003becc55f00a2646970667358221220381205865b045a92b499bb6f19c13d86a78c886c52455de3e14490d3e889482a64736f6c634300081e0033","linkReferences":{}},"methodIdentifiers":{"BASIS_POINTS()":"e1f1c4a7","MAX_PROTOCOL_FEE()":"b8ca3b83","acceptQuote(bytes32,bytes32)":"526a75fd","cancelQuote(bytes32)":"f4e96ddf","cancelRFQ(bytes32)":"ae86fed3","createRFQ(address,address,uint256,uint256,uint256)":"98555538","feeRecipient()":"46904840","getBestQuote(bytes32)":"e028a300","getQuotesForRequest(bytes32)":"fef85672","getRFQRequest(bytes32)":"b2b1f484","marketMakerRegistry()":"5c36f34b","maxQuoteTimeout()":"7f4f6535","minQuoteTimeout()":"ebf6f838","owner()":"8da5cb5b","protocolFee()":"b0e21e8a","quoteManager()":"d6329955","renounceOwnership()":"715018a6","requests(bytes32)":"9d866985","rfqTimeout()":"1c6824d1","setFeeRecipient(address)":"e74b981b","setProtocolFee(uint256)":"787dce3d","setQuoteTimeout(uint256,uint256)":"8a4cbdd7","submitQuote(bytes32,uint256,uint256)":"66bffe26","transferOwnership(address)":"f2fde38b","updateQuote(bytes32,uint256)":"ca563abb"},"id":28}